{
  "contractName": "Splitter",
  "abi": [
    {
      "constant": true,
      "inputs": [],
      "name": "owner",
      "outputs": [
        {
          "name": "",
          "type": "address"
        }
      ],
      "payable": false,
      "stateMutability": "view",
      "type": "function"
    },
    {
      "inputs": [],
      "payable": true,
      "stateMutability": "payable",
      "type": "constructor"
    },
    {
      "payable": true,
      "stateMutability": "payable",
      "type": "fallback"
    },
    {
      "anonymous": false,
      "inputs": [
        {
          "indexed": false,
          "name": "owner",
          "type": "address"
        },
        {
          "indexed": false,
          "name": "Bob",
          "type": "address"
        },
        {
          "indexed": false,
          "name": "Carol",
          "type": "address"
        }
      ],
      "name": "Logcreator",
      "type": "event"
    },
    {
      "anonymous": false,
      "inputs": [
        {
          "indexed": false,
          "name": "bob",
          "type": "uint256"
        },
        {
          "indexed": false,
          "name": "Carol",
          "type": "uint256"
        }
      ],
      "name": "LogSending",
      "type": "event"
    },
    {
      "constant": false,
      "inputs": [
        {
          "name": "_Bob",
          "type": "address"
        },
        {
          "name": "_Carol",
          "type": "address"
        }
      ],
      "name": "setReceivers",
      "outputs": [],
      "payable": false,
      "stateMutability": "nonpayable",
      "type": "function"
    },
    {
      "constant": false,
      "inputs": [],
      "name": "send",
      "outputs": [],
      "payable": true,
      "stateMutability": "payable",
      "type": "function"
    },
    {
      "constant": false,
      "inputs": [],
      "name": "withDraw",
      "outputs": [],
      "payable": true,
      "stateMutability": "payable",
      "type": "function"
    },
    {
      "constant": true,
      "inputs": [],
      "name": "contractBalance",
      "outputs": [
        {
          "name": "",
          "type": "uint256"
        }
      ],
      "payable": false,
      "stateMutability": "view",
      "type": "function"
    },
    {
      "constant": true,
      "inputs": [],
      "name": "participantBalance",
      "outputs": [
        {
          "name": "",
          "type": "uint256"
        },
        {
          "name": "",
          "type": "uint256"
        },
        {
          "name": "",
          "type": "uint256"
        }
      ],
      "payable": false,
      "stateMutability": "view",
      "type": "function"
    },
    {
      "constant": false,
      "inputs": [],
      "name": "emergency",
      "outputs": [],
      "payable": true,
      "stateMutability": "payable",
      "type": "function"
    }
  ],
  "bytecode": "0x606060405233600360006101000a81548173ffffffffffffffffffffffffffffffffffffffff021916908373ffffffffffffffffffffffffffffffffffffffff160217905550610c71806100546000396000f300606060405260043610610083576000357c0100000000000000000000000000000000000000000000000000000000900463ffffffff1680630fdb1c1014610085578063879f75941461008f5780638b7afe2e146100c65780638da5cb5b146100ef578063b46300ec14610144578063caa6fea41461014e578063ce0fc88f14610158575b005b61008d6101b0565b005b341561009a57600080fd5b6100a2610497565b60405180848152602001838152602001828152602001935050505060405180910390f35b34156100d157600080fd5b6100d961059f565b6040518082815260200191505060405180910390f35b34156100fa57600080fd5b6101026105be565b604051808273ffffffffffffffffffffffffffffffffffffffff1673ffffffffffffffffffffffffffffffffffffffff16815260200191505060405180910390f35b61014c6105e4565b005b6101566107bf565b005b341561016357600080fd5b6101ae600480803573ffffffffffffffffffffffffffffffffffffffff1690602001909190803573ffffffffffffffffffffffffffffffffffffffff169060200190919050506108f5565b005b6000600254600154011115156101c557600080fd5b600060018154811015156101d557fe5b906000526020600020900160009054906101000a900473ffffffffffffffffffffffffffffffffffffffff1673ffffffffffffffffffffffffffffffffffffffff163373ffffffffffffffffffffffffffffffffffffffff1614806102a057506000600281548110151561024557fe5b906000526020600020900160009054906101000a900473ffffffffffffffffffffffffffffffffffffffff1673ffffffffffffffffffffffffffffffffffffffff163373ffffffffffffffffffffffffffffffffffffffff16145b15156102ab57600080fd5b600060018154811015156102bb57fe5b906000526020600020900160009054906101000a900473ffffffffffffffffffffffffffffffffffffffff1673ffffffffffffffffffffffffffffffffffffffff163373ffffffffffffffffffffffffffffffffffffffff1614156103a0576000600181548110151561032a57fe5b906000526020600020900160009054906101000a900473ffffffffffffffffffffffffffffffffffffffff1673ffffffffffffffffffffffffffffffffffffffff166108fc6001549081150290604051600060405180830381858888f19350505050151561039757600080fd5b60006001819055505b600060028154811015156103b057fe5b906000526020600020900160009054906101000a900473ffffffffffffffffffffffffffffffffffffffff1673ffffffffffffffffffffffffffffffffffffffff163373ffffffffffffffffffffffffffffffffffffffff161415610495576000600281548110151561041f57fe5b906000526020600020900160009054906101000a900473ffffffffffffffffffffffffffffffffffffffff1673ffffffffffffffffffffffffffffffffffffffff166108fc6002549081150290604051600060405180830381858888f19350505050151561048c57600080fd5b60006002819055505b565b60008060008060008154811015156104ab57fe5b906000526020600020900160009054906101000a900473ffffffffffffffffffffffffffffffffffffffff1673ffffffffffffffffffffffffffffffffffffffff1631600060018154811015156104fe57fe5b906000526020600020900160009054906101000a900473ffffffffffffffffffffffffffffffffffffffff1673ffffffffffffffffffffffffffffffffffffffff16316000600281548110151561055157fe5b906000526020600020900160009054906101000a900473ffffffffffffffffffffffffffffffffffffffff1673ffffffffffffffffffffffffffffffffffffffff1631925092509250909192565b60003073ffffffffffffffffffffffffffffffffffffffff1631905090565b600360009054906101000a900473ffffffffffffffffffffffffffffffffffffffff1681565b3373ffffffffffffffffffffffffffffffffffffffff16600360009054906101000a900473ffffffffffffffffffffffffffffffffffffffff1673ffffffffffffffffffffffffffffffffffffffff1614151561064057600080fd5b600080600181548110151561065157fe5b906000526020600020900160009054906101000a900473ffffffffffffffffffffffffffffffffffffffff1673ffffffffffffffffffffffffffffffffffffffff16141515156106a057600080fd5b60008060028154811015156106b157fe5b906000526020600020900160009054906101000a900473ffffffffffffffffffffffffffffffffffffffff1673ffffffffffffffffffffffffffffffffffffffff161415151561070057600080fd5b60003073ffffffffffffffffffffffffffffffffffffffff163111151561072657600080fd5b60023073ffffffffffffffffffffffffffffffffffffffff163181151561074957fe5b0460018190555060023073ffffffffffffffffffffffffffffffffffffffff163181151561077357fe5b046002819055507f2904db6367ac5c6fa4a02577d79955fa12a13a5aec199d982e1d3ba8e6144ad7600154600254604051808381526020018281526020019250505060405180910390a1565b3373ffffffffffffffffffffffffffffffffffffffff16600360009054906101000a900473ffffffffffffffffffffffffffffffffffffffff1673ffffffffffffffffffffffffffffffffffffffff1614151561081b57600080fd5b60003073ffffffffffffffffffffffffffffffffffffffff163111151561084157600080fd5b600360009054906101000a900473ffffffffffffffffffffffffffffffffffffffff1673ffffffffffffffffffffffffffffffffffffffff166108fc3073ffffffffffffffffffffffffffffffffffffffff16319081150290604051600060405180830381858888f1935050505015156108ba57600080fd5b600360009054906101000a900473ffffffffffffffffffffffffffffffffffffffff1673ffffffffffffffffffffffffffffffffffffffff16ff5b3373ffffffffffffffffffffffffffffffffffffffff16600360009054906101000a900473ffffffffffffffffffffffffffffffffffffffff1673ffffffffffffffffffffffffffffffffffffffff1614151561095157600080fd5b8173ffffffffffffffffffffffffffffffffffffffff163373ffffffffffffffffffffffffffffffffffffffff16141580156109b957508073ffffffffffffffffffffffffffffffffffffffff163373ffffffffffffffffffffffffffffffffffffffff1614155b80156109f157508073ffffffffffffffffffffffffffffffffffffffff168273ffffffffffffffffffffffffffffffffffffffff1614155b15156109fc57600080fd5b60008054806001018281610a109190610bf4565b9160005260206000209001600033909190916101000a81548173ffffffffffffffffffffffffffffffffffffffff021916908373ffffffffffffffffffffffffffffffffffffffff1602179055505060008054806001018281610a739190610bf4565b9160005260206000209001600084909190916101000a81548173ffffffffffffffffffffffffffffffffffffffff021916908373ffffffffffffffffffffffffffffffffffffffff1602179055505060008054806001018281610ad69190610bf4565b9160005260206000209001600083909190916101000a81548173ffffffffffffffffffffffffffffffffffffffff021916908373ffffffffffffffffffffffffffffffffffffffff160217905550507f64754dd8a35e7e29569d58ab5e3d848fa27749a5ac8fd348f7af5a26c3429102338383604051808473ffffffffffffffffffffffffffffffffffffffff1673ffffffffffffffffffffffffffffffffffffffff1681526020018373ffffffffffffffffffffffffffffffffffffffff1673ffffffffffffffffffffffffffffffffffffffff1681526020018273ffffffffffffffffffffffffffffffffffffffff1673ffffffffffffffffffffffffffffffffffffffff168152602001935050505060405180910390a15050565b815481835581811511610c1b57818360005260206000209182019101610c1a9190610c20565b5b505050565b610c4291905b80821115610c3e576000816000905550600101610c26565b5090565b905600a165627a7a72305820d548ae701699c8573e59a797970a23b39485d5b33af47f614fe62cc28519acc80029",
  "source": "pragma solidity ^0.4.18;\n\ncontract Splitter{\n    address[] addressKeeper;   //Guarda las direcciones de Alice,Bob y Carol\n    uint  bobPending;           //Si Alice envía eth, esta variable guarda el monto para bob\n    uint  carolPending;         // guarda el monto para carol\n    address public owner;             //el dueño del contrato\n    \n    event Logcreator(address owner, address Bob, address Carol);\n    event LogSending(uint bob,uint Carol); \n    \n    modifier onlyOwner(){\n        require(owner==msg.sender);   //Solo el dueño puede modificar\n        _;\n    }\n//cuando se crea el contrato, declara quien es el dueño   \n    function Splitter() public payable{\n        owner=msg.sender;\n    }\n//función fallback\n       function() public payable{\n\t}\n\t\n//guardar las direcciones de Alice, Bob y Carol (Solo el dueño la puede modificar).\n    function setReceivers(address _Bob, address _Carol) onlyOwner public{\n\trequire(msg.sender!=_Bob && msg.sender!=_Carol && _Bob!=_Carol);\n        addressKeeper.push(msg.sender);\n        addressKeeper.push(_Bob);\n        addressKeeper.push(_Carol);\n        Logcreator(msg.sender,_Bob,_Carol);\n\t}  \n//Alice decide enviar los ethers a Bob y Carol    \n    function send() payable onlyOwner public{\n        require(addressKeeper[1]!=0x000);\n        require(addressKeeper[2]!=0x000);\n        require(address(this).balance>0);\n            bobPending=address(this).balance/2;     //una mitad para bob\n            carolPending=address(this).balance/2;//la otra mitad a Carol\n            LogSending(bobPending,carolPending);\n    }\n\n//retirar el dinero pendiente.\n    function withDraw() payable public{\n        require(bobPending+carolPending>0); //solo si está pendiente la transacción\n        require(msg.sender==addressKeeper[1] || msg.sender==addressKeeper[2]);\n        if(msg.sender == addressKeeper[1]){\n            addressKeeper[1].transfer(bobPending);  //Solo Bob puede retirar el dinero\n            bobPending=0;\n            }\n        if(msg.sender == addressKeeper[2]){\n            addressKeeper[2].transfer(carolPending); //Solo Carol puede retirar el dinero\n            carolPending=0;\n            }\n    }\n    \n    function contractBalance() public view returns(uint){\n        return( address(this).balance);\n    }\n    \n    function participantBalance() public view returns( uint, uint, uint){\n        return(addressKeeper[0].balance,addressKeeper[1].balance,addressKeeper[2].balance);\n    }\n    \n    function emergency()public onlyOwner payable{\n        require(address(this).balance>0);   //si el balance es mayor a 0\n        owner.transfer(address(this).balance); //devuelva el dinero del contrato al dueño\n        selfdestruct(owner);  //que se destruya el contrato\n    }\n    \n}\n",
  "sourcePath": "/home/mauricio/DAPPS/Splitter/contracts/Splitter.sol",
  "compiler": {
    "name": "solc",
    "version": "0.4.19+commit.c4cbbb05.Emscripten.clang"
  },
  "schemaVersion": "1.0.1",
  "updatedAt": "2018-08-24T02:46:33.496Z"
}